{
    "contractName": "PetSafe",
    "abi": [
        {
            "inputs": [],
            "stateMutability": "nonpayable",
            "type": "constructor"
        },
        {
            "inputs": [
                {
                    "internalType": "uint256",
                    "name": "_secret",
                    "type": "uint256"
                }
            ],
            "name": "getIdentifier",
            "outputs": [
                {
                    "internalType": "bytes32",
                    "name": "",
                    "type": "bytes32"
                }
            ],
            "stateMutability": "pure",
            "type": "function"
        },
        {
            "inputs": [],
            "name": "open",
            "outputs": [],
            "stateMutability": "nonpayable",
            "type": "function"
        },
        {
            "inputs": [
                {
                    "internalType": "bytes32",
                    "name": "_identifier",
                    "type": "bytes32"
                }
            ],
            "name": "registerPet",
            "outputs": [
                {
                    "internalType": "address",
                    "name": "",
                    "type": "address"
                }
            ],
            "stateMutability": "nonpayable",
            "type": "function"
        },
        {
            "inputs": [],
            "name": "registry",
            "outputs": [
                {
                    "internalType": "contract Registry",
                    "name": "",
                    "type": "address"
                }
            ],
            "stateMutability": "view",
            "type": "function"
        }
    ],
    "bytecode": "608060405234801561001057600080fd5b5060405161001d9061005f565b604051809103906000f080158015610039573d6000803e3d6000fd5b50600080546001600160a01b0319166001600160a01b039290921691909117905561006c565b610d148061271b83390190565b6126a08061007b6000396000f3fe608060405234801561001057600080fd5b506004361061004c5760003560e01c80637b103999146100515780637fe6928d14610081578063c172aae514610094578063fcfff16f146100b5575b600080fd5b600054610064906001600160a01b031681565b6040516001600160a01b0390911681526020015b60405180910390f35b61006461008f36600461042c565b6100bf565b6100a76100a236600461042c565b610302565b604051908152602001610078565b6100bd610334565b005b60006002600054600160a01b900460ff1660028111156100e1576100e1610445565b14156102a157337356ddd1f7543a15d8a0acdfcf447e197aa45f0eb7146101435760405162461bcd60e51b815260206004820152601160248201527014195d14d85999481a5cc810db1bdcd959607a1b60448201526064015b60405180910390fd5b60006040516101519061041f565b604051809103906000f08015801561016d573d6000803e3d6000fd5b50600054604051630722691760e51b8152600481018690523360248201526001600160a01b03918216604482015291925082169063e44d22e090606401600060405180830381600087803b1580156101c457600080fd5b505af11580156101d8573d6000803e3d6000fd5b505060008054604051637e089ec360e11b81526001600160a01b0386811660048301523360248301529294509116915063fc113d86906044016020604051808303816000875af1158015610230573d6000803e3d6000fd5b505050506040513d601f19601f82011682018060405250810190610254919061045b565b90508061029a5760405162461bcd60e51b8152602060048201526014602482015273526567697374726174696f6e204661696c65642160601b604482015260640161013a565b5092915050565b6001600054600160a01b900460ff1660028111156102c1576102c1610445565b146101435760405162461bcd60e51b815260206004820152601160248201527014195d14d85999481a5cc810db1bdcd959607a1b604482015260640161013a565b60008160405160200161031791815260200190565b604051602081830303815290604052805190602001209050919050565b337356ddd1f7543a15d8a0acdfcf447e197aa45f0eb71461038d5760405162461bcd60e51b815260206004820152601360248201527243616c6c6572206973204e6f74205a696d612160681b604482015260640161013a565b6103976001610399565b565b337356ddd1f7543a15d8a0acdfcf447e197aa45f0eb7146103f25760405162461bcd60e51b815260206004820152601360248201527243616c6c6572206973204e6f74205a696d612160681b604482015260640161013a565b6000805482919060ff60a01b1916600160a01b83600281111561041757610417610445565b021790555050565b6121e68061048583390190565b60006020828403121561043e57600080fd5b5035919050565b634e487b7160e01b600052602160045260246000fd5b60006020828403121561046d57600080fd5b8151801515811461047d57600080fd5b939250505056fe608060405234801561001057600080fd5b506121c6806100206000396000f3fe608060405234801561001057600080fd5b50600436106101005760003560e01c80636c4ebd0511610097578063aced166111610066578063aced1661146101ea578063c11ab813146101f2578063dcafcd1414610205578063e44d22e01461021857600080fd5b80636c4ebd051461019a57806385190d76146101af5780638da5cb5b146101c25780638f4e441e146101e257600080fd5b80632f98b732116100d35780632f98b732146101575780633b3493d31461016a578063488ef164146101725780636b8e3caf1461018757600080fd5b806306fdde03146101055780631aa3a00814610123578063200d2ed21461012d578063257f3b9414610142575b600080fd5b61010d61022b565b60405161011a9190611bd9565b60405180910390f35b61012b610328565b005b610135610373565b60405161011a9190611c09565b61014a610382565b60405161011a9190611c37565b61012b610165366004611c5b565b61038c565b61012b6103d2565b61017a610412565b60405161011a9190611ca7565b61012b610195366004611cd7565b61041c565b6101a2610464565b60405161011a9190611db4565b61012b6101bd366004611dd1565b61046e565b6101ca6104b1565b6040516001600160a01b03909116815260200161011a565b61014a6104bb565b6101ca6104c5565b61012b610200366004611e2a565b6104cf565b61012b610213366004611e63565b610511565b61012b610226366004611e93565b61051d565b606073__$a6c967475b4ade86367f950637c12e8058$__6317d7de7c6040518163ffffffff1660e01b8152600401602060405180830381865af4158015610276573d6000803e3d6000fd5b505050506040513d601f19601f8201168201806040525081019061029a9190611ecf565b80546102a590611ee8565b80601f01602080910402602001604051908101604052809291908181526020018280546102d190611ee8565b801561031e5780601f106102f35761010080835404028352916020019161031e565b820191906000526020600020905b81548152906001019060200180831161030157829003601f168201915b5050505050905090565b610330610531565b6001600160a01b0316336001600160a01b0316146103695760405162461bcd60e51b815260040161036090611f23565b60405180910390fd5b61037161054f565b565b600061037d6106bb565b905090565b600061037d6106d3565b610394610531565b6001600160a01b0316336001600160a01b0316146103c45760405162461bcd60e51b815260040161036090611f23565b6103ce82826106f1565b5050565b6103da610531565b6001600160a01b0316336001600160a01b03161461040a5760405162461bcd60e51b815260040161036090611f23565b61037161084b565b600061037d61098a565b610424610531565b6001600160a01b0316336001600160a01b0316146104545760405162461bcd60e51b815260040161036090611f23565b61045f8383836109a7565b505050565b600061037d610a0c565b610476610531565b6001600160a01b0316336001600160a01b0316146104a65760405162461bcd60e51b815260040161036090611f23565b61045f838383610a2b565b600061037d610531565b600061037d610cbb565b600061037d610cdb565b6104d7610531565b6001600160a01b0316336001600160a01b0316146105075760405162461bcd60e51b815260040161036090611f23565b6103ce8282610cf9565b61051a81610dab565b50565b61052633610edd565b61045f838383610f09565b60008061053c610f99565b600101546001600160a01b031692915050565b610557610fbd565b6105995760405162461bcd60e51b8152602060048201526013602482015272149959da5cdd1c985d1a5bdb8811985a5b1959606a1b6044820152606401610360565b60006105a3610f99565b600481015490915061010090046001600160a01b031663f7fed4ab6105c6611285565b6040518263ffffffff1660e01b81526004016105e491815260200190565b600060405180830381600087803b1580156105fe57600080fd5b505af1158015610612573d6000803e3d6000fd5b50505050600481015461010090046001600160a01b03166374058084610636611285565b6040518263ffffffff1660e01b815260040161065491815260200190565b602060405180830381865afa158015610671573d6000803e3d6000fd5b505050506040513d601f19601f820116820180604052508101906106959190611f5a565b6106b15760405162461bcd60e51b815260040161036090611f77565b61051a60016112c2565b6000806106c6610f99565b6004015460ff1692915050565b6000806106de610f99565b6006015462010000900460ff1692915050565b60008260ff161161073a5760405162461bcd60e51b8152602060048201526013602482015272121bdb594813185d1a5d1d591948155b9cd95d606a1b6044820152606401610360565b60008160ff16116107845760405162461bcd60e51b8152602060048201526014602482015273121bdb5948131bdb99da5d1d591948155b9cd95d60621b6044820152606401610360565b605a8260ff16106107cf5760405162461bcd60e51b8152602060048201526015602482015274121bdb594813185d1a5d1d591948125b9d985b1a59605a1b6044820152606401610360565b60b48160ff161061081b5760405162461bcd60e51b8152602060048201526016602482015275121bdb5948131bdb99da5d1d591948125b9d985b1a5960521b6044820152606401610360565b6000610825610f99565b600901805460ff9384166101000261ffff19909116939094169290921792909217905550565b610853611399565b61085c57600080fd5b6000610866610f99565b600481015490915061010090046001600160a01b03166311327402610889611285565b6040518263ffffffff1660e01b81526004016108a791815260200190565b6020604051808303816000875af11580156108c6573d6000803e3d6000fd5b505050506040513d601f19601f820116820180604052508101906108ea9190611f5a565b508060040160019054906101000a90046001600160a01b03166001600160a01b031663d38347f66040518163ffffffff1660e01b8152600401602060405180830381865afa158015610940573d6000803e3d6000fd5b505050506040513d601f19601f820116820180604052508101906109649190611f5a565b6109805760405162461bcd60e51b815260040161036090611f77565b61051a60026112c2565b600080610995610f99565b60060154610100900460ff1692915050565b60006109b1610f99565b90506000600482015460ff1660038111156109ce576109ce611bf3565b146109eb5760405162461bcd60e51b815260040161036090611fae565b6109f48461151b565b6109fd83611650565b610a0682611707565b50505050565b600080610a17610f99565b600601546301000000900460ff1692915050565b6000610a35610f99565b90506000600482015460ff166003811115610a5257610a52611bf3565b14610a6f5760405162461bcd60e51b815260040161036090611fae565b6000610a79610f99565b90506004836004811115610a8f57610a8f611bf3565b1415610a99578493505b6000856007811115610aad57610aad611bf3565b11610af25760405162461bcd60e51b8152602060048201526015602482015274141c9a5b585c9e4810dbdb1bdc88125b9d985b1a59605a1b6044820152606401610360565b6000846007811115610b0657610b06611bf3565b11610b535760405162461bcd60e51b815260206004820152601760248201527f5365636f6e6461727920436f6c6f7220496e76616c69640000000000000000006044820152606401610360565b6000836004811115610b6757610b67611bf3565b11610ba75760405162461bcd60e51b815260206004820152601060248201526f13585c9ada5b99dcc8125b9d985b1a5960821b6044820152606401610360565b60068101805486919062ff0000191662010000836007811115610bcc57610bcc611bf3565b021790555060068101805485919064ff000000001916640100000000836007811115610bfa57610bfa611bf3565b021790555060068101805484919063ff00000019166301000000836004811115610c2657610c26611bf3565b021790555060068101546301000000900460ff166004811115610c4b57610c4b611bf3565b6006820154640100000000900460ff166007811115610c6c57610c6c611bf3565b600683015462010000900460ff166007811115610c8b57610c8b611bf3565b6040517f353acd74f284d25da197764e1c658f4e39927855b0670def06a6a89676124cce90600090a45050505050565b600080610cc6610f99565b60060154640100000000900460ff1692915050565b600080610ce6610f99565b600201546001600160a01b031692915050565b6000826002811115610d0d57610d0d611bf3565b11610d515760405162461bcd60e51b815260206004820152601460248201527314195d0815195b5c195c9b595b9d08155b9cd95d60621b6044820152606401610360565b6000610d5b610f99565b600681018054919250849165ff0000000000191665010000000000836002811115610d8857610d88611bf3565b02179055506009018054911515620100000262ff00001990921691909117905550565b610db36117a7565b610dbc57600080fd5b600081604051602001610dd191815260200190565b6040516020818303038152906040528051906020012090506000610df3610f99565b905080600301548214610e395760405162461bcd60e51b815260206004820152600e60248201526d125b9d985b1a590814d958dc995d60921b6044820152606401610360565b6004818101546002830154604051632ad6e9bd60e01b81526001600160a01b03918216938101939093526101009091041690632ad6e9bd906024016020604051808303816000875af1158015610e93573d6000803e3d6000fd5b505050506040513d601f19601f82011682018060405250810190610eb79190611f5a565b610ed35760405162461bcd60e51b815260040161036090611f77565b61045f60036112c2565b6000610ee7610f99565b80546001600160a01b0319166001600160a01b03939093169290921790915550565b6000610f13610f99565b90506000600482015460ff166003811115610f3057610f30611bf3565b14610f775760405162461bcd60e51b815260206004820152601760248201527650657420616c726561647920526567697374657265642160481b6044820152606401610360565b60038101849055610f878361192b565b610f9083611998565b610a0682611a05565b7f38b16d8ae20e366387cf5c90d42b36de394d23851d88499c7edf56ce0b6e57c190565b600080610fc8610f99565b90506000600482015460ff166003811115610fe557610fe5611bf3565b1461102c5760405162461bcd60e51b815260206004820152601760248201527650657420616c726561647920526567697374657265642160481b6044820152606401610360565b600681015460ff166110805760405162461bcd60e51b815260206004820152601a60248201527f4e616d6520697320556e736574206275742052657175697265640000000000006044820152606401610360565b60006006820154610100900460ff1660028111156110a0576110a0611bf3565b116110ed5760405162461bcd60e51b815260206004820152601e60248201527f506574205479706520697320556e7365742062757420526571756972656400006044820152606401610360565b600781015461113e5760405162461bcd60e51b815260206004820152601960248201527f446f4220697320556e73657420627574205265717569726564000000000000006044820152606401610360565b6000600682015462010000900460ff16600781111561115f5761115f611bf3565b116111b85760405162461bcd60e51b815260206004820152602360248201527f5072696d61727920436f6c6f7220697320556e736574206275742052657175696044820152621c995960ea1b6064820152608401610360565b600981015460ff166112185760405162461bcd60e51b815260206004820152602360248201527f486f6d65204c6174697475646520697320556e736574206275742052657175696044820152621c995960ea1b6064820152608401610360565b6009810154610100900460ff1661127d5760405162461bcd60e51b8152602060048201526024808201527f486f6d65204c6f6e67697475646520697320556e7365742062757420526571756044820152631a5c995960e21b6064820152608401610360565b600191505090565b600080611290610f99565b9050806005016040516020016112a6919061207f565b6040516020818303038152906040528051906020012091505090565b6112cb81611a7d565b61130f5760405162461bcd60e51b8152602060048201526015602482015274496e76616c696420537461747573204368616e676560581b6044820152606401610360565b6000611319610f99565b905081600381111561132d5761132d611bf3565b600482015460ff16600381111561134657611346611bf3565b6040517f99c35248cf9e83c1e055a99bbc800710d70388f78c6fd62b464b59a73958dd4e90600090a360048101805483919060ff1916600183600381111561139057611390611bf3565b02179055505050565b6000806113a4610f99565b90506001600482015460ff1660038111156113c1576113c1611bf3565b146113fe5760405162461bcd60e51b815260206004820152600d60248201526c506574204e6f7420536166652160981b6044820152606401610360565b600181015460028201546001600160a01b0390811691161461145b5760405162461bcd60e51b81526020600482015260166024820152754f776e6572204b6565706572204d69736d617463682160501b6044820152606401610360565b600481015461010090046001600160a01b0316637405808461147b611285565b6040518263ffffffff1660e01b815260040161149991815260200190565b602060405180830381865afa1580156114b6573d6000803e3d6000fd5b505050506040513d601f19601f820116820180604052508101906114da9190611f5a565b61127d5760405162461bcd60e51b815260206004820152601260248201527114195d08139bdd08149959da5cdd195c995960721b6044820152606401610360565b6000611525610f99565b90506000600482015460ff16600381111561154257611542611bf3565b1461155f5760405162461bcd60e51b815260040161036090611fae565b6000611569610f99565b905060006006820154610100900460ff16600281111561158b5761158b611bf3565b146115cf5760405162461bcd60e51b815260206004820152601460248201527314195d08151e5c1948185b1c9958591e4814d95d60621b6044820152606401610360565b60008360028111156115e3576115e3611bf3565b116116235760405162461bcd60e51b815260206004820152601060248201526f14195d08151e5c1948125b9d985b1a5960821b6044820152606401610360565b60068101805484919061ff00191661010083600281111561164657611646611bf3565b0217905550505050565b600061165a610f99565b90506000600482015460ff16600381111561167757611677611bf3565b146116945760405162461bcd60e51b815260040161036090611fae565b600061169e610f99565b90507f6c20b91d1723b78732eba64ff11ebd7966a6e4af568a00fa4f6b72c20f58b02a81600501600001846040516116d7929190612162565b60405180910390a182516116f49060058301906020860190611af3565b50600601805460ff191660011790555050565b6000611711610f99565b90506000600482015460ff16600381111561172e5761172e611bf3565b1461174b5760405162461bcd60e51b815260040161036090611fae565b6000611755610f99565b60078101549091501561179d5760405162461bcd60e51b815260206004820152601060248201526f446f4220416c7265616479205365742160801b6044820152606401610360565b6007019190915550565b6000806117b2610f99565b90506002600482015460ff1660038111156117cf576117cf611bf3565b1461180c5760405162461bcd60e51b815260206004820152600d60248201526c506574204e6f74204c6f73742160981b6044820152606401610360565b60028101546001600160a01b03166118665760405162461bcd60e51b815260206004820152601c60248201527f4b656570657220697320556e73657420627574205265717569726564000000006044820152606401610360565b8060040160019054906101000a90046001600160a01b03166001600160a01b031663d38347f66040518163ffffffff1660e01b8152600401602060405180830381865afa1580156118bb573d6000803e3d6000fd5b505050506040513d601f19601f820116820180604052508101906118df9190611f5a565b61127d5760405162461bcd60e51b815260206004820152601860248201527f506574204e6f74204c6f737420696e20526567697374727900000000000000006044820152606401610360565b6000611935610f99565b60018101546040519192506001600160a01b03808516929116907fb532073b38c83145e3e5135377a08bf9aab55bc0fd7c1179cd4fb995d2a5159c90600090a360010180546001600160a01b0319166001600160a01b0392909216919091179055565b60006119a2610f99565b60028101546040519192506001600160a01b03808516929116907f068b48a2fe7f498b57ff6da64f075ae658fde8d77124b092e62b3dc58d91ce3590600090a360020180546001600160a01b0319166001600160a01b0392909216919091179055565b6000611a0f610f99565b60048101546040519192506001600160a01b038085169261010090920416907f4803049971913703d2dd43c06110dc7fad451e4603e9f485cbeebdda11263ab090600090a360040180546001600160a01b0390921661010002610100600160a81b0319909216919091179055565b60006001826003811115611a9357611a93611bf3565b1415611aa757611aa1610fbd565b92915050565b6002826003811115611abb57611abb611bf3565b1415611ac957611aa1611399565b6003826003811115611add57611add611bf3565b1415611aeb57611aa16117a7565b506000919050565b828054611aff90611ee8565b90600052602060002090601f016020900481019282611b215760008555611b67565b82601f10611b3a57805160ff1916838001178555611b67565b82800160010185558215611b67579182015b82811115611b67578251825591602001919060010190611b4c565b50611b73929150611b77565b5090565b5b80821115611b735760008155600101611b78565b6000815180845260005b81811015611bb257602081850181015186830182015201611b96565b81811115611bc4576000602083870101525b50601f01601f19169290920160200192915050565b602081526000611bec6020830184611b8c565b9392505050565b634e487b7160e01b600052602160045260246000fd5b6020810160048310611c1d57611c1d611bf3565b91905290565b60088110611c3357611c33611bf3565b9052565b60208101611aa18284611c23565b803560ff81168114611c5657600080fd5b919050565b60008060408385031215611c6e57600080fd5b611c7783611c45565b9150611c8560208401611c45565b90509250929050565b6003811061051a5761051a611bf3565b611c3381611c8e565b60208101611c1d83611c8e565b6003811061051a57600080fd5b634e487b7160e01b600052604160045260246000fd5b600080600060608486031215611cec57600080fd5b8335611cf781611cb4565b9250602084013567ffffffffffffffff80821115611d1457600080fd5b818601915086601f830112611d2857600080fd5b813581811115611d3a57611d3a611cc1565b604051601f8201601f19908116603f01168101908382118183101715611d6257611d62611cc1565b81604052828152896020848701011115611d7b57600080fd5b826020860160208301376000602084830101528096505050505050604084013590509250925092565b60058110611c3357611c33611bf3565b60208101611aa18284611da4565b803560088110611c5657600080fd5b600080600060608486031215611de657600080fd5b611def84611dc2565b9250611dfd60208501611dc2565b9150604084013560058110611e1157600080fd5b809150509250925092565b801515811461051a57600080fd5b60008060408385031215611e3d57600080fd5b8235611e4881611cb4565b91506020830135611e5881611e1c565b809150509250929050565b600060208284031215611e7557600080fd5b5035919050565b80356001600160a01b0381168114611c5657600080fd5b600080600060608486031215611ea857600080fd5b83359250611eb860208501611e7c565b9150611ec660408501611e7c565b90509250925092565b600060208284031215611ee157600080fd5b5051919050565b600181811c90821680611efc57607f821691505b60208210811415611f1d57634e487b7160e01b600052602260045260246000fd5b50919050565b60208082526017908201527f43616c6c6572206973206e6f7420506574204f776e6572000000000000000000604082015260600190565b600060208284031215611f6c57600080fd5b8151611bec81611e1c565b60208082526019908201527f4661696c656420746f2055706461746520526567697374727900000000000000604082015260600190565b60208082526016908201527514195d08105b1c9958591e48149959da5cdd195c995960521b604082015260600190565b8054600090600181811c9080831680611ff857607f831692505b602080841082141561201a57634e487b7160e01b600052602260045260246000fd5b838852818015612031576001811461204557612073565b60ff19861689830152604089019650612073565b876000528160002060005b8681101561206b5781548b8201850152908501908301612050565b8a0183019750505b50505050505092915050565b60208152600061018080602084015261209c6101a0840185611fde565b600185015460ff808216151560408701526120bf60608701828460081c16611c9e565b6120d160808701828460101c16611c23565b6120e360a08701828460181c16611da4565b6120f560c08701828460201c16611c23565b61210760e08701828460281c16611c9e565b60028701546101008701526003870154610120870152600487015460ff8282161661014088015291506121456101608701828460081c1660ff169052565b612157848701828460101c1615159052565b509095945050505050565b6040815260006121756040830185611fde565b82810360208401526121878185611b8c565b9594505050505056fea264697066735822122004fd30f862b2be8b014c35a10dd2184d7ea4b04c182205d34cbe6062e3b9754e64736f6c634300080b0033a26469706673582212203d7474b0845c2847766806dcb8e2ead667dbd8c5b46ad0a55bb08181d9ab0db364736f6c634300080b0033608060405234801561001057600080fd5b506100243361002960201b61062a1760201c565b61006a565b7f293fba1767bf52f0cf97621cdfa8133fbe653af3736209f82f3cba2b5649af0f80546001600160a01b0319166001600160a01b0392909216919091179055565b610c9b806100796000396000f3fe608060405234801561001057600080fd5b50600436106100885760003560e01c8063740580841161005b57806374058084146100e5578063d38347f6146100f8578063f7fed4ab14610100578063fc113d861461011557600080fd5b8063113274021461008d5780632ad6e9bd146100b55780632b28e744146100c8578063532604b5146100dd575b600080fd5b6100a061009b3660046109fe565b610128565b60405190151581526020015b60405180910390f35b6100a06100c3366004610a2c565b610209565b6100d06102dd565b6040516100ac9190610a49565b6100a0610355565b6100a06100f33660046109fe565b6103cc565b6100a0610449565b61011361010e3660046109fe565b610483565b005b6100a0610123366004610a96565b61054f565b6040516303886e2d60e21b815260048101829052336024820152600090829073__$d58cf643a9ca7647ae9b36767735c29a5d$__90630e21b8b490604401602060405180830381865af4158015610183573d6000803e3d6000fd5b505050506040513d601f19601f820116820180604052508101906101a79190610acf565b6101f85760405162461bcd60e51b815260206004820152601f60248201527f43616c6c6572206973206e6f742061205265676973746572656420506574210060448201526064015b60405180910390fd5b6102023384610659565b9392505050565b6040516362b749af60e11b815233600482015260009073__$d58cf643a9ca7647ae9b36767735c29a5d$__9063c56e935e90602401602060405180830381865af415801561025b573d6000803e3d6000fd5b505050506040513d601f19601f8201168201806040525081019061027f9190610acf565b6102cb5760405162461bcd60e51b815260206004820152601960248201527f43616c6c6572206973206e6f742061204c6f737420506574210000000000000060448201526064016101ef565b6102d533836106fe565b90505b919050565b606073__$d58cf643a9ca7647ae9b36767735c29a5d$__63441479b86040518163ffffffff1660e01b8152600401600060405180830381865af4158015610328573d6000803e3d6000fd5b505050506040513d6000823e601f3d908101601f191682016040526103509190810190610b12565b905090565b604051630f68b69b60e31b815233600482015260009073__$d58cf643a9ca7647ae9b36767735c29a5d$__90637b45b4d8906024015b602060405180830381865af41580156103a8573d6000803e3d6000fd5b505050506040513d601f19601f820116820180604052508101906103509190610acf565b6040516303886e2d60e21b81526004810182905233602482015260009073__$d58cf643a9ca7647ae9b36767735c29a5d$__90630e21b8b490604401602060405180830381865af4158015610425573d6000803e3d6000fd5b505050506040513d601f19601f820116820180604052508101906102d59190610acf565b6040516362b749af60e11b815233600482015260009073__$d58cf643a9ca7647ae9b36767735c29a5d$__9063c56e935e9060240161038b565b604051630f68b69b60e31b815233600482015273__$d58cf643a9ca7647ae9b36767735c29a5d$__90637b45b4d890602401602060405180830381865af41580156104d2573d6000803e3d6000fd5b505050506040513d601f19601f820116820180604052508101906104f69190610acf565b6105425760405162461bcd60e51b815260206004820152601a60248201527f43616c6c6572206973204e6f7420612056616c6964205065742100000000000060448201526064016101ef565b61054c338261075e565b50565b600073__$d58cf643a9ca7647ae9b36767735c29a5d$__6398c9dc826040518163ffffffff1660e01b8152600401602060405180830381865af415801561059a573d6000803e3d6000fd5b505050506040513d601f19601f820116820180604052508101906105be9190610bd7565b6001600160a01b0316336001600160a01b0316146106175760405162461bcd60e51b815260206004820152601660248201527543616c6c6572206973206e6f7420506574536166652160501b60448201526064016101ef565b61062183836107e6565b90505b92915050565b600080516020610c4683398151915280546001600160a01b0319166001600160a01b0392909216919091179055565b6001600160a01b03821660009081527f293fba1767bf52f0cf97621cdfa8133fbe653af3736209f82f3cba2b5649af106020526040812054600080516020610c468339815191529060ff16156106f45760405183906001600160a01b038616907fb4236fd5d0eead609598ca2d23d6a63a82345ca1db120bfca0484c21fa434a5b90600090a36106ec600382018561089c565b915050610624565b6000915050610624565b604051600090600080516020610c46833981519152906001600160a01b0380851691908616907fdac48f5cc7e40b41d9bb8f6d1bc796ce25ff89b86eaba18a21d96501dbb53670908590a361075660038201856108b1565b949350505050565b60008181527f293fba1767bf52f0cf97621cdfa8133fbe653af3736209f82f3cba2b5649af11602052604080822080546001600160a01b0319166001600160a01b0386169081179091559051600080516020610c46833981519152928492917f4dd19446e9f3bd8c75ef6ffe295b6020b924ed64c43157278773e34ab4fe08fe9190a3505050565b6001600160a01b03821660009081527f293fba1767bf52f0cf97621cdfa8133fbe653af3736209f82f3cba2b5649af106020526040812054600080516020610c468339815191529060ff1615610840576000915050610624565b6001600160a01b03808516600081815260018481016020526040808320805460ff191690921790915551928616927f13a8e1048201647f08088bfc919ed99c8d1854236774f7e6f3def04893d35d7b9190a35060019392505050565b6000610621836001600160a01b0384166108c6565b6000610621836001600160a01b038416610915565b600081815260018301602052604081205461090d57508154600181810184556000848152602080822090930184905584548482528286019093526040902091909155610624565b506000610624565b600081815260018301602052604081205480156106f4576000610939600183610bf4565b855490915060009061094d90600190610bf4565b90508181146109b257600086600001828154811061096d5761096d610c19565b906000526020600020015490508087600001848154811061099057610990610c19565b6000918252602080832090910192909255918252600188019052604090208390555b85548690806109c3576109c3610c2f565b600190038181906000526020600020016000905590558560010160008681526020019081526020016000206000905560019350505050610624565b600060208284031215610a1057600080fd5b5035919050565b6001600160a01b038116811461054c57600080fd5b600060208284031215610a3e57600080fd5b813561020281610a17565b6020808252825182820181905260009190848201906040850190845b81811015610a8a5783516001600160a01b031683529284019291840191600101610a65565b50909695505050505050565b60008060408385031215610aa957600080fd5b8235610ab481610a17565b91506020830135610ac481610a17565b809150509250929050565b600060208284031215610ae157600080fd5b8151801515811461020257600080fd5b634e487b7160e01b600052604160045260246000fd5b80516102d881610a17565b60006020808385031215610b2557600080fd5b825167ffffffffffffffff80821115610b3d57600080fd5b818501915085601f830112610b5157600080fd5b815181811115610b6357610b63610af1565b8060051b604051601f19603f83011681018181108582111715610b8857610b88610af1565b604052918252848201925083810185019188831115610ba657600080fd5b938501935b82851015610bcb57610bbc85610b07565b84529385019392850192610bab565b98975050505050505050565b600060208284031215610be957600080fd5b815161020281610a17565b600082821015610c1457634e487b7160e01b600052601160045260246000fd5b500390565b634e487b7160e01b600052603260045260246000fd5b634e487b7160e01b600052603160045260246000fdfe293fba1767bf52f0cf97621cdfa8133fbe653af3736209f82f3cba2b5649af0fa264697066735822122099f8ea0aef8a5eaaab6c8d43a46d833578859da924ecc0c9ef7e2d157e09988664736f6c634300080b0033",
    "sourcePath": "c:/Users/scout/git/PetSafe/PetSafe.sol",
    "compiler": {
        "name": "solc",
        "version": "0.8.11+commit.d7f03943"
    },
    "functionHashes": {
        "getIdentifier(uint256)": "c172aae5",
        "open()": "fcfff16f",
        "registerPet(bytes32)": "7fe6928d",
        "registry()": "7b103999"
    },
    "gasEstimates": {
        "creation": {
            "codeDepositCost": "1977600",
            "executionCost": "infinite",
            "totalCost": "infinite"
        },
        "external": {
            "getIdentifier(uint256)": "454",
            "open()": "24542",
            "registerPet(bytes32)": "infinite",
            "registry()": "2304"
        },
        "internal": {
            "setStatus(enum Status)": "infinite"
        }
    }
}